{"contracts/ETHSplitter.sol":{"ETHSplitter":{"abi":[{"inputs":[{"internalType":"address[]","name":"_recipients","type":"address[]"},{"internalType":"uint256[]","name":"_percentages","type":"uint256[]"}],"stateMutability":"nonpayable","type":"constructor"},{"inputs":[{"internalType":"uint256","name":"","type":"uint256"}],"name":"percentages","outputs":[{"internalType":"uint256","name":"","type":"uint256"}],"stateMutability":"view","type":"function"},{"inputs":[{"internalType":"uint256","name":"","type":"uint256"}],"name":"recipients","outputs":[{"internalType":"address","name":"","type":"address"}],"stateMutability":"view","type":"function"},{"stateMutability":"payable","type":"receive"}],"evm":{"bytecode":{"linkReferences":{},"object":"60806040523480156200001157600080fd5b5060405162000c2538038062000c25833981810160405281019062000037919062000550565b80518251146200007e576040517f08c379a0000000000000000000000000000000000000000000000000000000008152600401620000759062000636565b60405180910390fd5b6000805b8251811015620000cf57828181518110620000a257620000a162000658565b5b602002602001015182620000b79190620006b6565b91508080620000c690620006f1565b91505062000082565b506064811462000116576040517f08c379a00000000000000000000000000000000000000000000000000000000081526004016200010d906200078e565b60405180910390fd5b82600090805190602001906200012e92919062000151565b50816001908051906020019062000147929190620001e0565b50505050620007b0565b828054828255906000526020600020908101928215620001cd579160200282015b82811115620001cc5782518260006101000a81548173ffffffffffffffffffffffffffffffffffffffff021916908373ffffffffffffffffffffffffffffffffffffffff1602179055509160200191906001019062000172565b5b509050620001dc919062000232565b5090565b8280548282559060005260206000209081019282156200021f579160200282015b828111156200021e57825182559160200191906001019062000201565b5b5090506200022e919062000232565b5090565b5b808211156200024d57600081600090555060010162000233565b5090565b6000604051905090565b600080fd5b600080fd5b600080fd5b6000601f19601f8301169050919050565b7f4e487b7100000000000000000000000000000000000000000000000000000000600052604160045260246000fd5b620002b5826200026a565b810181811067ffffffffffffffff82111715620002d757620002d66200027b565b5b80604052505050565b6000620002ec62000251565b9050620002fa8282620002aa565b919050565b600067ffffffffffffffff8211156200031d576200031c6200027b565b5b602082029050602081019050919050565b600080fd5b600073ffffffffffffffffffffffffffffffffffffffff82169050919050565b6000620003608262000333565b9050919050565b620003728162000353565b81146200037e57600080fd5b50565b600081519050620003928162000367565b92915050565b6000620003af620003a984620002ff565b620002e0565b90508083825260208201905060208402830185811115620003d557620003d46200032e565b5b835b81811015620004025780620003ed888262000381565b845260208401935050602081019050620003d7565b5050509392505050565b600082601f83011262000424576200042362000265565b5b81516200043684826020860162000398565b91505092915050565b600067ffffffffffffffff8211156200045d576200045c6200027b565b5b602082029050602081019050919050565b6000819050919050565b62000483816200046e565b81146200048f57600080fd5b50565b600081519050620004a38162000478565b92915050565b6000620004c0620004ba846200043f565b620002e0565b90508083825260208201905060208402830185811115620004e657620004e56200032e565b5b835b81811015620005135780620004fe888262000492565b845260208401935050602081019050620004e8565b5050509392505050565b600082601f83011262000535576200053462000265565b5b815162000547848260208601620004a9565b91505092915050565b600080604083850312156200056a57620005696200025b565b5b600083015167ffffffffffffffff8111156200058b576200058a62000260565b5b62000599858286016200040c565b925050602083015167ffffffffffffffff811115620005bd57620005bc62000260565b5b620005cb858286016200051d565b9150509250929050565b600082825260208201905092915050565b7f4d69736d617463686564206172726179206c656e677468730000000000000000600082015250565b60006200061e601883620005d5565b91506200062b82620005e6565b602082019050919050565b6000602082019050818103600083015262000651816200060f565b9050919050565b7f4e487b7100000000000000000000000000000000000000000000000000000000600052603260045260246000fd5b7f4e487b7100000000000000000000000000000000000000000000000000000000600052601160045260246000fd5b6000620006c3826200046e565b9150620006d0836200046e565b9250828201905080821115620006eb57620006ea62000687565b5b92915050565b6000620006fe826200046e565b91507fffffffffffffffffffffffffffffffffffffffffffffffffffffffffffffffff820362000733576200073262000687565b5b600182019050919050565b7f546f74616c2070657263656e74616765206d7573742062652031303000000000600082015250565b600062000776601c83620005d5565b915062000783826200073e565b602082019050919050565b60006020820190508181036000830152620007a98162000767565b9050919050565b61046580620007c06000396000f3fe60806040526004361061002d5760003560e01c8063d1bc76a11461011c578063f88583861461015957610117565b366101175760005b60008054905081101561011557600060646001838154811061005a576100596101f9565b5b9060005260206000200154346100709190610261565b61007a91906102d2565b9050600082815481106100905761008f6101f9565b5b9060005260206000200160009054906101000a900473ffffffffffffffffffffffffffffffffffffffff1673ffffffffffffffffffffffffffffffffffffffff166108fc829081150290604051600060405180830381858888f19350505050158015610100573d6000803e3d6000fd5b5050808061010d90610303565b915050610035565b005b600080fd5b34801561012857600080fd5b50610143600480360381019061013e919061037c565b610196565b60405161015091906103ea565b60405180910390f35b34801561016557600080fd5b50610180600480360381019061017b919061037c565b6101d5565b60405161018d9190610414565b60405180910390f35b600081815481106101a657600080fd5b906000526020600020016000915054906101000a900473ffffffffffffffffffffffffffffffffffffffff1681565b600181815481106101e557600080fd5b906000526020600020016000915090505481565b7f4e487b7100000000000000000000000000000000000000000000000000000000600052603260045260246000fd5b6000819050919050565b7f4e487b7100000000000000000000000000000000000000000000000000000000600052601160045260246000fd5b600061026c82610228565b915061027783610228565b925082820261028581610228565b9150828204841483151761029c5761029b610232565b5b5092915050565b7f4e487b7100000000000000000000000000000000000000000000000000000000600052601260045260246000fd5b60006102dd82610228565b91506102e883610228565b9250826102f8576102f76102a3565b5b828204905092915050565b600061030e82610228565b91507fffffffffffffffffffffffffffffffffffffffffffffffffffffffffffffffff82036103405761033f610232565b5b600182019050919050565b600080fd5b61035981610228565b811461036457600080fd5b50565b60008135905061037681610350565b92915050565b6000602082840312156103925761039161034b565b5b60006103a084828501610367565b91505092915050565b600073ffffffffffffffffffffffffffffffffffffffff82169050919050565b60006103d4826103a9565b9050919050565b6103e4816103c9565b82525050565b60006020820190506103ff60008301846103db565b92915050565b61040e81610228565b82525050565b60006020820190506104296000830184610405565b9291505056fea264697066735822122034c4b015be7c2325abb76cd0574afa81b502af1705faaecafd45d9d086a23b9664736f6c63430008140033","opcodes":"PUSH1 0x80 PUSH1 0x40 MSTORE CALLVALUE DUP1 ISZERO PUSH3 0x11 JUMPI PUSH1 0x0 DUP1 REVERT JUMPDEST POP PUSH1 0x40 MLOAD PUSH3 0xC25 CODESIZE SUB DUP1 PUSH3 0xC25 DUP4 CODECOPY DUP2 DUP2 ADD PUSH1 0x40 MSTORE DUP2 ADD SWAP1 PUSH3 0x37 SWAP2 SWAP1 PUSH3 0x550 JUMP JUMPDEST DUP1 MLOAD DUP3 MLOAD EQ PUSH3 0x7E JUMPI PUSH1 0x40 MLOAD PUSH32 0x8C379A000000000000000000000000000000000000000000000000000000000 DUP2 MSTORE PUSH1 0x4 ADD PUSH3 0x75 SWAP1 PUSH3 0x636 JUMP JUMPDEST PUSH1 0x40 MLOAD DUP1 SWAP2 SUB SWAP1 REVERT JUMPDEST PUSH1 0x0 DUP1 JUMPDEST DUP3 MLOAD DUP2 LT ISZERO PUSH3 0xCF JUMPI DUP3 DUP2 DUP2 MLOAD DUP2 LT PUSH3 0xA2 JUMPI PUSH3 0xA1 PUSH3 0x658 JUMP JUMPDEST JUMPDEST PUSH1 0x20 MUL PUSH1 0x20 ADD ADD MLOAD DUP3 PUSH3 0xB7 SWAP2 SWAP1 PUSH3 0x6B6 JUMP JUMPDEST SWAP2 POP DUP1 DUP1 PUSH3 0xC6 SWAP1 PUSH3 0x6F1 JUMP JUMPDEST SWAP2 POP POP PUSH3 0x82 JUMP JUMPDEST POP PUSH1 0x64 DUP2 EQ PUSH3 0x116 JUMPI PUSH1 0x40 MLOAD PUSH32 0x8C379A000000000000000000000000000000000000000000000000000000000 DUP2 MSTORE PUSH1 0x4 ADD PUSH3 0x10D SWAP1 PUSH3 0x78E JUMP JUMPDEST PUSH1 0x40 MLOAD DUP1 SWAP2 SUB SWAP1 REVERT JUMPDEST DUP3 PUSH1 0x0 SWAP1 DUP1 MLOAD SWAP1 PUSH1 0x20 ADD SWAP1 PUSH3 0x12E SWAP3 SWAP2 SWAP1 PUSH3 0x151 JUMP JUMPDEST POP DUP2 PUSH1 0x1 SWAP1 DUP1 MLOAD SWAP1 PUSH1 0x20 ADD SWAP1 PUSH3 0x147 SWAP3 SWAP2 SWAP1 PUSH3 0x1E0 JUMP JUMPDEST POP POP POP POP PUSH3 0x7B0 JUMP JUMPDEST DUP3 DUP1 SLOAD DUP3 DUP3 SSTORE SWAP1 PUSH1 0x0 MSTORE PUSH1 0x20 PUSH1 0x0 KECCAK256 SWAP1 DUP2 ADD SWAP3 DUP3 ISZERO PUSH3 0x1CD JUMPI SWAP2 PUSH1 0x20 MUL DUP3 ADD JUMPDEST DUP3 DUP2 GT ISZERO PUSH3 0x1CC JUMPI DUP3 MLOAD DUP3 PUSH1 0x0 PUSH2 0x100 EXP DUP2 SLOAD DUP2 PUSH20 0xFFFFFFFFFFFFFFFFFFFFFFFFFFFFFFFFFFFFFFFF MUL NOT AND SWAP1 DUP4 PUSH20 0xFFFFFFFFFFFFFFFFFFFFFFFFFFFFFFFFFFFFFFFF AND MUL OR SWAP1 SSTORE POP SWAP2 PUSH1 0x20 ADD SWAP2 SWAP1 PUSH1 0x1 ADD SWAP1 PUSH3 0x172 JUMP JUMPDEST JUMPDEST POP SWAP1 POP PUSH3 0x1DC SWAP2 SWAP1 PUSH3 0x232 JUMP JUMPDEST POP SWAP1 JUMP JUMPDEST DUP3 DUP1 SLOAD DUP3 DUP3 SSTORE SWAP1 PUSH1 0x0 MSTORE PUSH1 0x20 PUSH1 0x0 KECCAK256 SWAP1 DUP2 ADD SWAP3 DUP3 ISZERO PUSH3 0x21F JUMPI SWAP2 PUSH1 0x20 MUL DUP3 ADD JUMPDEST DUP3 DUP2 GT ISZERO PUSH3 0x21E JUMPI DUP3 MLOAD DUP3 SSTORE SWAP2 PUSH1 0x20 ADD SWAP2 SWAP1 PUSH1 0x1 ADD SWAP1 PUSH3 0x201 JUMP JUMPDEST JUMPDEST POP SWAP1 POP PUSH3 0x22E SWAP2 SWAP1 PUSH3 0x232 JUMP JUMPDEST POP SWAP1 JUMP JUMPDEST JUMPDEST DUP1 DUP3 GT ISZERO PUSH3 0x24D JUMPI PUSH1 0x0 DUP2 PUSH1 0x0 SWAP1 SSTORE POP PUSH1 0x1 ADD PUSH3 0x233 JUMP JUMPDEST POP SWAP1 JUMP JUMPDEST PUSH1 0x0 PUSH1 0x40 MLOAD SWAP1 POP SWAP1 JUMP JUMPDEST PUSH1 0x0 DUP1 REVERT JUMPDEST PUSH1 0x0 DUP1 REVERT JUMPDEST PUSH1 0x0 DUP1 REVERT JUMPDEST PUSH1 0x0 PUSH1 0x1F NOT PUSH1 0x1F DUP4 ADD AND SWAP1 POP SWAP2 SWAP1 POP JUMP JUMPDEST PUSH32 0x4E487B7100000000000000000000000000000000000000000000000000000000 PUSH1 0x0 MSTORE PUSH1 0x41 PUSH1 0x4 MSTORE PUSH1 0x24 PUSH1 0x0 REVERT JUMPDEST PUSH3 0x2B5 DUP3 PUSH3 0x26A JUMP JUMPDEST DUP2 ADD DUP2 DUP2 LT PUSH8 0xFFFFFFFFFFFFFFFF DUP3 GT OR ISZERO PUSH3 0x2D7 JUMPI PUSH3 0x2D6 PUSH3 0x27B JUMP JUMPDEST JUMPDEST DUP1 PUSH1 0x40 MSTORE POP POP POP JUMP JUMPDEST PUSH1 0x0 PUSH3 0x2EC PUSH3 0x251 JUMP JUMPDEST SWAP1 POP PUSH3 0x2FA DUP3 DUP3 PUSH3 0x2AA JUMP JUMPDEST SWAP2 SWAP1 POP JUMP JUMPDEST PUSH1 0x0 PUSH8 0xFFFFFFFFFFFFFFFF DUP3 GT ISZERO PUSH3 0x31D JUMPI PUSH3 0x31C PUSH3 0x27B JUMP JUMPDEST JUMPDEST PUSH1 0x20 DUP3 MUL SWAP1 POP PUSH1 0x20 DUP2 ADD SWAP1 POP SWAP2 SWAP1 POP JUMP JUMPDEST PUSH1 0x0 DUP1 REVERT JUMPDEST PUSH1 0x0 PUSH20 0xFFFFFFFFFFFFFFFFFFFFFFFFFFFFFFFFFFFFFFFF DUP3 AND SWAP1 POP SWAP2 SWAP1 POP JUMP JUMPDEST PUSH1 0x0 PUSH3 0x360 DUP3 PUSH3 0x333 JUMP JUMPDEST SWAP1 POP SWAP2 SWAP1 POP JUMP JUMPDEST PUSH3 0x372 DUP2 PUSH3 0x353 JUMP JUMPDEST DUP2 EQ PUSH3 0x37E JUMPI PUSH1 0x0 DUP1 REVERT JUMPDEST POP JUMP JUMPDEST PUSH1 0x0 DUP2 MLOAD SWAP1 POP PUSH3 0x392 DUP2 PUSH3 0x367 JUMP JUMPDEST SWAP3 SWAP2 POP POP JUMP JUMPDEST PUSH1 0x0 PUSH3 0x3AF PUSH3 0x3A9 DUP5 PUSH3 0x2FF JUMP JUMPDEST PUSH3 0x2E0 JUMP JUMPDEST SWAP1 POP DUP1 DUP4 DUP3 MSTORE PUSH1 0x20 DUP3 ADD SWAP1 POP PUSH1 0x20 DUP5 MUL DUP4 ADD DUP6 DUP2 GT ISZERO PUSH3 0x3D5 JUMPI PUSH3 0x3D4 PUSH3 0x32E JUMP JUMPDEST JUMPDEST DUP4 JUMPDEST DUP2 DUP2 LT ISZERO PUSH3 0x402 JUMPI DUP1 PUSH3 0x3ED DUP9 DUP3 PUSH3 0x381 JUMP JUMPDEST DUP5 MSTORE PUSH1 0x20 DUP5 ADD SWAP4 POP POP PUSH1 0x20 DUP2 ADD SWAP1 POP PUSH3 0x3D7 JUMP JUMPDEST POP POP POP SWAP4 SWAP3 POP POP POP JUMP JUMPDEST PUSH1 0x0 DUP3 PUSH1 0x1F DUP4 ADD SLT PUSH3 0x424 JUMPI PUSH3 0x423 PUSH3 0x265 JUMP JUMPDEST JUMPDEST DUP2 MLOAD PUSH3 0x436 DUP5 DUP3 PUSH1 0x20 DUP7 ADD PUSH3 0x398 JUMP JUMPDEST SWAP2 POP POP SWAP3 SWAP2 POP POP JUMP JUMPDEST PUSH1 0x0 PUSH8 0xFFFFFFFFFFFFFFFF DUP3 GT ISZERO PUSH3 0x45D JUMPI PUSH3 0x45C PUSH3 0x27B JUMP JUMPDEST JUMPDEST PUSH1 0x20 DUP3 MUL SWAP1 POP PUSH1 0x20 DUP2 ADD SWAP1 POP SWAP2 SWAP1 POP JUMP JUMPDEST PUSH1 0x0 DUP2 SWAP1 POP SWAP2 SWAP1 POP JUMP JUMPDEST PUSH3 0x483 DUP2 PUSH3 0x46E JUMP JUMPDEST DUP2 EQ PUSH3 0x48F JUMPI PUSH1 0x0 DUP1 REVERT JUMPDEST POP JUMP JUMPDEST PUSH1 0x0 DUP2 MLOAD SWAP1 POP PUSH3 0x4A3 DUP2 PUSH3 0x478 JUMP JUMPDEST SWAP3 SWAP2 POP POP JUMP JUMPDEST PUSH1 0x0 PUSH3 0x4C0 PUSH3 0x4BA DUP5 PUSH3 0x43F JUMP JUMPDEST PUSH3 0x2E0 JUMP JUMPDEST SWAP1 POP DUP1 DUP4 DUP3 MSTORE PUSH1 0x20 DUP3 ADD SWAP1 POP PUSH1 0x20 DUP5 MUL DUP4 ADD DUP6 DUP2 GT ISZERO PUSH3 0x4E6 JUMPI PUSH3 0x4E5 PUSH3 0x32E JUMP JUMPDEST JUMPDEST DUP4 JUMPDEST DUP2 DUP2 LT ISZERO PUSH3 0x513 JUMPI DUP1 PUSH3 0x4FE DUP9 DUP3 PUSH3 0x492 JUMP JUMPDEST DUP5 MSTORE PUSH1 0x20 DUP5 ADD SWAP4 POP POP PUSH1 0x20 DUP2 ADD SWAP1 POP PUSH3 0x4E8 JUMP JUMPDEST POP POP POP SWAP4 SWAP3 POP POP POP JUMP JUMPDEST PUSH1 0x0 DUP3 PUSH1 0x1F DUP4 ADD SLT PUSH3 0x535 JUMPI PUSH3 0x534 PUSH3 0x265 JUMP JUMPDEST JUMPDEST DUP2 MLOAD PUSH3 0x547 DUP5 DUP3 PUSH1 0x20 DUP7 ADD PUSH3 0x4A9 JUMP JUMPDEST SWAP2 POP POP SWAP3 SWAP2 POP POP JUMP JUMPDEST PUSH1 0x0 DUP1 PUSH1 0x40 DUP4 DUP6 SUB SLT ISZERO PUSH3 0x56A JUMPI PUSH3 0x569 PUSH3 0x25B JUMP JUMPDEST JUMPDEST PUSH1 0x0 DUP4 ADD MLOAD PUSH8 0xFFFFFFFFFFFFFFFF DUP2 GT ISZERO PUSH3 0x58B JUMPI PUSH3 0x58A PUSH3 0x260 JUMP JUMPDEST JUMPDEST PUSH3 0x599 DUP6 DUP3 DUP7 ADD PUSH3 0x40C JUMP JUMPDEST SWAP3 POP POP PUSH1 0x20 DUP4 ADD MLOAD PUSH8 0xFFFFFFFFFFFFFFFF DUP2 GT ISZERO PUSH3 0x5BD JUMPI PUSH3 0x5BC PUSH3 0x260 JUMP JUMPDEST JUMPDEST PUSH3 0x5CB DUP6 DUP3 DUP7 ADD PUSH3 0x51D JUMP JUMPDEST SWAP2 POP POP SWAP3 POP SWAP3 SWAP1 POP JUMP JUMPDEST PUSH1 0x0 DUP3 DUP3 MSTORE PUSH1 0x20 DUP3 ADD SWAP1 POP SWAP3 SWAP2 POP POP JUMP JUMPDEST PUSH32 0x4D69736D617463686564206172726179206C656E677468730000000000000000 PUSH1 0x0 DUP3 ADD MSTORE POP JUMP JUMPDEST PUSH1 0x0 PUSH3 0x61E PUSH1 0x18 DUP4 PUSH3 0x5D5 JUMP JUMPDEST SWAP2 POP PUSH3 0x62B DUP3 PUSH3 0x5E6 JUMP JUMPDEST PUSH1 0x20 DUP3 ADD SWAP1 POP SWAP2 SWAP1 POP JUMP JUMPDEST PUSH1 0x0 PUSH1 0x20 DUP3 ADD SWAP1 POP DUP2 DUP2 SUB PUSH1 0x0 DUP4 ADD MSTORE PUSH3 0x651 DUP2 PUSH3 0x60F JUMP JUMPDEST SWAP1 POP SWAP2 SWAP1 POP JUMP JUMPDEST PUSH32 0x4E487B7100000000000000000000000000000000000000000000000000000000 PUSH1 0x0 MSTORE PUSH1 0x32 PUSH1 0x4 MSTORE PUSH1 0x24 PUSH1 0x0 REVERT JUMPDEST PUSH32 0x4E487B7100000000000000000000000000000000000000000000000000000000 PUSH1 0x0 MSTORE PUSH1 0x11 PUSH1 0x4 MSTORE PUSH1 0x24 PUSH1 0x0 REVERT JUMPDEST PUSH1 0x0 PUSH3 0x6C3 DUP3 PUSH3 0x46E JUMP JUMPDEST SWAP2 POP PUSH3 0x6D0 DUP4 PUSH3 0x46E JUMP JUMPDEST SWAP3 POP DUP3 DUP3 ADD SWAP1 POP DUP1 DUP3 GT ISZERO PUSH3 0x6EB JUMPI PUSH3 0x6EA PUSH3 0x687 JUMP JUMPDEST JUMPDEST SWAP3 SWAP2 POP POP JUMP JUMPDEST PUSH1 0x0 PUSH3 0x6FE DUP3 PUSH3 0x46E JUMP JUMPDEST SWAP2 POP PUSH32 0xFFFFFFFFFFFFFFFFFFFFFFFFFFFFFFFFFFFFFFFFFFFFFFFFFFFFFFFFFFFFFFFF DUP3 SUB PUSH3 0x733 JUMPI PUSH3 0x732 PUSH3 0x687 JUMP JUMPDEST JUMPDEST PUSH1 0x1 DUP3 ADD SWAP1 POP SWAP2 SWAP1 POP JUMP JUMPDEST PUSH32 0x546F74616C2070657263656E74616765206D7573742062652031303000000000 PUSH1 0x0 DUP3 ADD MSTORE POP JUMP JUMPDEST PUSH1 0x0 PUSH3 0x776 PUSH1 0x1C DUP4 PUSH3 0x5D5 JUMP JUMPDEST SWAP2 POP PUSH3 0x783 DUP3 PUSH3 0x73E JUMP JUMPDEST PUSH1 0x20 DUP3 ADD SWAP1 POP SWAP2 SWAP1 POP JUMP JUMPDEST PUSH1 0x0 PUSH1 0x20 DUP3 ADD SWAP1 POP DUP2 DUP2 SUB PUSH1 0x0 DUP4 ADD MSTORE PUSH3 0x7A9 DUP2 PUSH3 0x767 JUMP JUMPDEST SWAP1 POP SWAP2 SWAP1 POP JUMP JUMPDEST PUSH2 0x465 DUP1 PUSH3 0x7C0 PUSH1 0x0 CODECOPY PUSH1 0x0 RETURN INVALID PUSH1 0x80 PUSH1 0x40 MSTORE PUSH1 0x4 CALLDATASIZE LT PUSH2 0x2D JUMPI PUSH1 0x0 CALLDATALOAD PUSH1 0xE0 SHR DUP1 PUSH4 0xD1BC76A1 EQ PUSH2 0x11C JUMPI DUP1 PUSH4 0xF8858386 EQ PUSH2 0x159 JUMPI PUSH2 0x117 JUMP JUMPDEST CALLDATASIZE PUSH2 0x117 JUMPI PUSH1 0x0 JUMPDEST PUSH1 0x0 DUP1 SLOAD SWAP1 POP DUP2 LT ISZERO PUSH2 0x115 JUMPI PUSH1 0x0 PUSH1 0x64 PUSH1 0x1 DUP4 DUP2 SLOAD DUP2 LT PUSH2 0x5A JUMPI PUSH2 0x59 PUSH2 0x1F9 JUMP JUMPDEST JUMPDEST SWAP1 PUSH1 0x0 MSTORE PUSH1 0x20 PUSH1 0x0 KECCAK256 ADD SLOAD CALLVALUE PUSH2 0x70 SWAP2 SWAP1 PUSH2 0x261 JUMP JUMPDEST PUSH2 0x7A SWAP2 SWAP1 PUSH2 0x2D2 JUMP JUMPDEST SWAP1 POP PUSH1 0x0 DUP3 DUP2 SLOAD DUP2 LT PUSH2 0x90 JUMPI PUSH2 0x8F PUSH2 0x1F9 JUMP JUMPDEST JUMPDEST SWAP1 PUSH1 0x0 MSTORE PUSH1 0x20 PUSH1 0x0 KECCAK256 ADD PUSH1 0x0 SWAP1 SLOAD SWAP1 PUSH2 0x100 EXP SWAP1 DIV PUSH20 0xFFFFFFFFFFFFFFFFFFFFFFFFFFFFFFFFFFFFFFFF AND PUSH20 0xFFFFFFFFFFFFFFFFFFFFFFFFFFFFFFFFFFFFFFFF AND PUSH2 0x8FC DUP3 SWAP1 DUP2 ISZERO MUL SWAP1 PUSH1 0x40 MLOAD PUSH1 0x0 PUSH1 0x40 MLOAD DUP1 DUP4 SUB DUP2 DUP6 DUP9 DUP9 CALL SWAP4 POP POP POP POP ISZERO DUP1 ISZERO PUSH2 0x100 JUMPI RETURNDATASIZE PUSH1 0x0 DUP1 RETURNDATACOPY RETURNDATASIZE PUSH1 0x0 REVERT JUMPDEST POP POP DUP1 DUP1 PUSH2 0x10D SWAP1 PUSH2 0x303 JUMP JUMPDEST SWAP2 POP POP PUSH2 0x35 JUMP JUMPDEST STOP JUMPDEST PUSH1 0x0 DUP1 REVERT JUMPDEST CALLVALUE DUP1 ISZERO PUSH2 0x128 JUMPI PUSH1 0x0 DUP1 REVERT JUMPDEST POP PUSH2 0x143 PUSH1 0x4 DUP1 CALLDATASIZE SUB DUP2 ADD SWAP1 PUSH2 0x13E SWAP2 SWAP1 PUSH2 0x37C JUMP JUMPDEST PUSH2 0x196 JUMP JUMPDEST PUSH1 0x40 MLOAD PUSH2 0x150 SWAP2 SWAP1 PUSH2 0x3EA JUMP JUMPDEST PUSH1 0x40 MLOAD DUP1 SWAP2 SUB SWAP1 RETURN JUMPDEST CALLVALUE DUP1 ISZERO PUSH2 0x165 JUMPI PUSH1 0x0 DUP1 REVERT JUMPDEST POP PUSH2 0x180 PUSH1 0x4 DUP1 CALLDATASIZE SUB DUP2 ADD SWAP1 PUSH2 0x17B SWAP2 SWAP1 PUSH2 0x37C JUMP JUMPDEST PUSH2 0x1D5 JUMP JUMPDEST PUSH1 0x40 MLOAD PUSH2 0x18D SWAP2 SWAP1 PUSH2 0x414 JUMP JUMPDEST PUSH1 0x40 MLOAD DUP1 SWAP2 SUB SWAP1 RETURN JUMPDEST PUSH1 0x0 DUP2 DUP2 SLOAD DUP2 LT PUSH2 0x1A6 JUMPI PUSH1 0x0 DUP1 REVERT JUMPDEST SWAP1 PUSH1 0x0 MSTORE PUSH1 0x20 PUSH1 0x0 KECCAK256 ADD PUSH1 0x0 SWAP2 POP SLOAD SWAP1 PUSH2 0x100 EXP SWAP1 DIV PUSH20 0xFFFFFFFFFFFFFFFFFFFFFFFFFFFFFFFFFFFFFFFF AND DUP2 JUMP JUMPDEST PUSH1 0x1 DUP2 DUP2 SLOAD DUP2 LT PUSH2 0x1E5 JUMPI PUSH1 0x0 DUP1 REVERT JUMPDEST SWAP1 PUSH1 0x0 MSTORE PUSH1 0x20 PUSH1 0x0 KECCAK256 ADD PUSH1 0x0 SWAP2 POP SWAP1 POP SLOAD DUP2 JUMP JUMPDEST PUSH32 0x4E487B7100000000000000000000000000000000000000000000000000000000 PUSH1 0x0 MSTORE PUSH1 0x32 PUSH1 0x4 MSTORE PUSH1 0x24 PUSH1 0x0 REVERT JUMPDEST PUSH1 0x0 DUP2 SWAP1 POP SWAP2 SWAP1 POP JUMP JUMPDEST PUSH32 0x4E487B7100000000000000000000000000000000000000000000000000000000 PUSH1 0x0 MSTORE PUSH1 0x11 PUSH1 0x4 MSTORE PUSH1 0x24 PUSH1 0x0 REVERT JUMPDEST PUSH1 0x0 PUSH2 0x26C DUP3 PUSH2 0x228 JUMP JUMPDEST SWAP2 POP PUSH2 0x277 DUP4 PUSH2 0x228 JUMP JUMPDEST SWAP3 POP DUP3 DUP3 MUL PUSH2 0x285 DUP2 PUSH2 0x228 JUMP JUMPDEST SWAP2 POP DUP3 DUP3 DIV DUP5 EQ DUP4 ISZERO OR PUSH2 0x29C JUMPI PUSH2 0x29B PUSH2 0x232 JUMP JUMPDEST JUMPDEST POP SWAP3 SWAP2 POP POP JUMP JUMPDEST PUSH32 0x4E487B7100000000000000000000000000000000000000000000000000000000 PUSH1 0x0 MSTORE PUSH1 0x12 PUSH1 0x4 MSTORE PUSH1 0x24 PUSH1 0x0 REVERT JUMPDEST PUSH1 0x0 PUSH2 0x2DD DUP3 PUSH2 0x228 JUMP JUMPDEST SWAP2 POP PUSH2 0x2E8 DUP4 PUSH2 0x228 JUMP JUMPDEST SWAP3 POP DUP3 PUSH2 0x2F8 JUMPI PUSH2 0x2F7 PUSH2 0x2A3 JUMP JUMPDEST JUMPDEST DUP3 DUP3 DIV SWAP1 POP SWAP3 SWAP2 POP POP JUMP JUMPDEST PUSH1 0x0 PUSH2 0x30E DUP3 PUSH2 0x228 JUMP JUMPDEST SWAP2 POP PUSH32 0xFFFFFFFFFFFFFFFFFFFFFFFFFFFFFFFFFFFFFFFFFFFFFFFFFFFFFFFFFFFFFFFF DUP3 SUB PUSH2 0x340 JUMPI PUSH2 0x33F PUSH2 0x232 JUMP JUMPDEST JUMPDEST PUSH1 0x1 DUP3 ADD SWAP1 POP SWAP2 SWAP1 POP JUMP JUMPDEST PUSH1 0x0 DUP1 REVERT JUMPDEST PUSH2 0x359 DUP2 PUSH2 0x228 JUMP JUMPDEST DUP2 EQ PUSH2 0x364 JUMPI PUSH1 0x0 DUP1 REVERT JUMPDEST POP JUMP JUMPDEST PUSH1 0x0 DUP2 CALLDATALOAD SWAP1 POP PUSH2 0x376 DUP2 PUSH2 0x350 JUMP JUMPDEST SWAP3 SWAP2 POP POP JUMP JUMPDEST PUSH1 0x0 PUSH1 0x20 DUP3 DUP5 SUB SLT ISZERO PUSH2 0x392 JUMPI PUSH2 0x391 PUSH2 0x34B JUMP JUMPDEST JUMPDEST PUSH1 0x0 PUSH2 0x3A0 DUP5 DUP3 DUP6 ADD PUSH2 0x367 JUMP JUMPDEST SWAP2 POP POP SWAP3 SWAP2 POP POP JUMP JUMPDEST PUSH1 0x0 PUSH20 0xFFFFFFFFFFFFFFFFFFFFFFFFFFFFFFFFFFFFFFFF DUP3 AND SWAP1 POP SWAP2 SWAP1 POP JUMP JUMPDEST PUSH1 0x0 PUSH2 0x3D4 DUP3 PUSH2 0x3A9 JUMP JUMPDEST SWAP1 POP SWAP2 SWAP1 POP JUMP JUMPDEST PUSH2 0x3E4 DUP2 PUSH2 0x3C9 JUMP JUMPDEST DUP3 MSTORE POP POP JUMP JUMPDEST PUSH1 0x0 PUSH1 0x20 DUP3 ADD SWAP1 POP PUSH2 0x3FF PUSH1 0x0 DUP4 ADD DUP5 PUSH2 0x3DB JUMP JUMPDEST SWAP3 SWAP2 POP POP JUMP JUMPDEST PUSH2 0x40E DUP2 PUSH2 0x228 JUMP JUMPDEST DUP3 MSTORE POP POP JUMP JUMPDEST PUSH1 0x0 PUSH1 0x20 DUP3 ADD SWAP1 POP PUSH2 0x429 PUSH1 0x0 DUP4 ADD DUP5 PUSH2 0x405 JUMP JUMPDEST SWAP3 SWAP2 POP POP JUMP INVALID LOG2 PUSH5 0x6970667358 0x22 SLT KECCAK256 CALLVALUE 0xC4 0xB0 ISZERO 0xBE PUSH29 0x2325ABB76CD0574AFA81B502AF1705FAAECAFD45D9D086A23B9664736F PUSH13 0x63430008140033000000000000 "},"methodIdentifiers":{"percentages(uint256)":"f8858386","recipients(uint256)":"d1bc76a1"}}}}}